:020000040000FA
:100000000A128A11FC2F00308A000408840A820731
:100010000034553441345234543420346934733408
:100020002034723465346134643479342034743467
:100030006F342034733465346E3464342034613466
:100040006E34643420347234653463346534693416
:10005000763465342034643461347434613400346B
:100060002D342D343E344C344534443420344F3414
:10007000463446340A3400342D342D343E344C3466
:0E0080004534443420344F344E340A340034B6
:100EB400F000831203130C1E602F612F5B2F700848
:100EC4009900080083120313981C692F6A2F6C2F52
:100ED400181218168C1E6F2F702F6C2F1A0808000A
:100EE40083160313071387178130990018151812F6
:100EF400831203139817831603139816831203138C
:100F040018168316031318138312031318130800F7
:100F1400F300F101F201A12F7108730784000A1292
:100F24008A1103200A128A110A128A115A270A12F4
:100F34008A110130F1070318F20A0030F207710830
:100F4400730784000A128A1103200A128A11003AD4
:100F5400031DAD2FAE2F8E2F08008316031306102A
:100F64008312031306100A128A1172270A128A11B5
:100F740001300A128A118A270A128A110A128A1166
:100F840064270A128A11F400F5017408F600750842
:100F9400F700313076067704031DD12FD22FE22FCC
:100FA40083120313061434300A128A118A270A1290
:100FB4008A110A300A128A115A270A128A11C02F7A
:100FC400303076067704031DE82FE92FC02F8312F3
:100FD4000313061028300A128A118A270A128A116A
:100FE4000A300A128A115A270A128A11C02F0A12C9
:0C0FF4008A11002883010A128A11AF2F15
:02400E00FA3F77
:00000001FF
